:1060000000800020A59F0000A19F0000A19F00002C
:10601000D57D0000A19F0000A19F0000A19F00006E
:10602000A19F0000A19F0000A19F0000A19F000070
:10603000A19F0000A19F0000A19F0000A19F000060
:10604000A19F0000A19F0000A19F0000A19F000050
:10605000A19F0000A19F0000A19F0000A19F000040
:10606000A19F0000A19F0000A19F0000A19F000030
:10607000A19F0000A19F0000A19F0000A19F000020
:10608000A19F0000A19F0000A19F0000A19F000010
:10609000A19F0000A19F0000A19F0000A19F000000
:1060A000A19F0000A19F0000A19F0000A19F0000F0
:1060B000A19F00007DE90000A19F0000B1F2000057
:1060C00079F2000075F2000031EB0000ADF2000043
:1060D0007DF2000085F2000081F2000009F300006B
:1060E00029D600008DD60000F1F20000A19F00002B
:1060F000A19F0000A19F0000A19F0000A19F0000A0
:10610000A19F0000A19F0000A19F0000A19F00008F
:10611000A19F0000A19F0000A19F0000A19F00007F
:10612000A19F0000A19F0000A19F0000A19F00006F
:10613000A19F0000A19F0000A19F0000A19F00005F
:1061400010B5054C237833B9044B13B1044800E073
:1061500000BF0123237010BD1801002000000000C3
:106160009C41010008B5034B1BB10349034800E003
:1061700000BF08BD000000001C0100209C41010080
:10618000A3F5803A704700BF174B002B08BF134B95
:106190009D46FFF7F5FF00218B460F461348144A32
:1061A000121A09F022FF0E4B002B00D098470D4B1E
:1061B000002B00D098470020002104000D000D485E
:1061C000002802D00C4800E000BF09F0DDFE2000EE
:1061D000290002F0C5FA09F0C3FE00BF0000080064
:1061E00000000000000000000080002018010020D6
:1061F000641A00200000000000000000BFF34F8F71
:106200000549064BCA6802F4E0621343CB60BFF352
:106210004F8F00BFFDE700BF00ED00E00400FA056E
:10622000024610B500B3114B1968888890421BD301
:1062300098880024904281BF012009689880996065
:106240009868998828B904B198604FF6FF729A80CF
:1062500009E08A4204D001310124006889B2F1E7E3
:106260000CB19A80986010BD0020FCE74007002028
:1062700000239B6AB3F5C04F03D21968064A9142C6
:1062800003D00023037083607047012202709A6874
:106290009B694260F7E700BF07B0CD5E10B50C46C2
:1062A00030B90448FFF7E4FF042304302060A380E2
:1062B000002010BDF401002000239B6AB3F5C04FFD
:1062C00005D21B6BB3F5C04F01D29B6B184740F250
:1062D0000110704700239B6AB3F5C04F05D21B6BBA
:1062E000B3F5C04F01D2DB6B184740F20110704785
:1062F000024BD86880B28002704700BF0080E00F78
:106300007FB503466D460E4A02F110062C46106812
:106310005168083203C4B2422546F7D15A1E0DF126
:106320000F010F3311F8010912F8014F844204D113
:106330009A42F7D1012004B070BD0020FBE700BFF6
:106340009801010070B5154E306810BB144B154C08
:10635000E41A154B1C4424F4FF5424F01F04FFF7E7
:10636000C7FF844214D2656BA5B1FFF7C1FF854218
:1063700010D2FFF7BDFF05F1400383420AD828463B
:10638000FFF7BEFF30B1EB6933F0080302D0346091
:10639000306870BD04F50054E1E700BF98010020AB
:1063A0001000002014010020E7610100034B044AA3
:1063B0009979117500221A60704700BFDC0D00202A
:1063C000D80600200022134630B58BB0D910415CAE
:1063D00003F007042141CC0742BF0AA9891801F83C
:1063E000283C03F1010348BF0132252BEED10023E5
:1063F0000C4CD910415C03F007052941C9075FBF68
:10640000B3FBF2F102FB11310AAD49194CBFD9B20D
:1064100011F8281C0133252B04F8011BE9D10BB01E
:1064200030BD00BF0207002010B5034CA01DFFF7D0
:10643000C9FF0023236010BDDC0D002010B540F221
:10644000E244074A6043136800F5807004FB0131A1
:10645000536801EB500118441160506010BD00BF3B
:10646000D80600200A20D0B50B4CE38C584309F025
:10647000DBFA0646A08C0F4609F0D6FA0022074B3D
:1064800009F03CFB02460B463046394609F060FCF9
:1064900009F046FD2083D0BDD80600200000F43F5F
:1064A00010B5094CB4F80710A079FFF7C7FFA3682F
:1064B000B4F80D10054AC3F30F239384D184FFF77A
:1064C000D1FF0023236010BDDC0D0020D806002082
:1064D000837DDB0701D5808A7047D0E901239B1AB1
:1064E00044BF828A9B1898B270474369416CDA1D99
:1064F0001439B2FBF1F28069013203EBC2020430BD
:1065000000EB4200DA1CB2FBF1F203EBC2030333EF
:10651000B3FBF1F3023301FB03007047F7B5074605
:106520000E4600257C6CA819644280EA06031C40D4
:1065300003D02C46204603B0F0BDFB6B01225B6903
:1065400001A99847019B0133F4D10435EAE7000023
:1065500003460846EFF3108172B6DB6B014ADB6835
:1065600011601847D40D002000234FF0FF3230B5E2
:1065700044689C4202D10023037230BD016801EBE4
:10658000C30541F833206A600133F2E72DE9F04397
:106590004668002E45D0056898464FF0000CA94685
:1065A000AE4655F83C400CF1010CC4F3130701341E
:1065B00001D0B94217D0B4450EF1080EF1D12F46E3
:1065C000002403E0B44207F1080712D055F8343034
:1065D00001340133F6D1C1F3130141EA0851C7E98F
:1065E0000012BDE8F08341EA0851CEE90012BDE88F
:1065F000F083B8F1030F14D0002303E0B34209F194
:1066000008090ED055F833400133C4F30754032C66
:10661000F4D1C1F3130343EA0853C9E90032BDE8DA
:10662000F08301230372BDE8F08300BF4FF4003212
:10663000064B00209A6641F6713203F51C33DA638B
:10664000012203F50053DA60704700BF009000405C
:1066500041F671320121064BDA6303F50052D16035
:106660000022DA634FF40032A3F518339A667047BC
:10667000000003407047036813F07E0F03D14068A9
:1066800020F07C40704713F078001CBF03F07F03BC
:10669000D81F704737B5054601F10C04436901A9BD
:1066A000012220469847BDF8043001220093694634
:1066B0002046AB69984703B030BD202A0B681EBF47
:1066C0004FF0FF3191408B43590801F055315B1A6F
:1066D00003F033319B0803F033330B44017803EBB1
:1066E00013130A444FF0013103F00F334B43A2EB75
:1066F00013630370704737B5044600251B22011D44
:106700000DF107008DF80750FFF7D7FF63689DF87C
:106710000720B2EBD36F03D123F0784003B030BD34
:106720001B2204F108018DF80750FFF7C6FFA0688F
:106730009DF80730B3EBD06F0ABFC0434FF0FF3076
:1067400020F07840EAE74BF29A22036810B5B2EBEA
:10675000134F044613D19BB2012B13D1FFF7CBFF8C
:1067600001300CD04FF6FF72E068B2EB104F4FEAE9
:10677000104309D180B2C01A18BF012010BD236890
:10678000013303D00420F9E70220F7E70320F5E7FF
:106790000C4B10B50C4CE41A0C4B1C4424F4FF5465
:1067A00024F01F04FFF7A4FDA04202D800242046D5
:1067B00010BD2046FFF7C7FF0128F8D904F50054A3
:1067C000F0E700BF1000002014010020E761010085
:1067D000F0B50546002687B0EC69013CB44203D809
:1067E0000C46204607B0F0BD01B14C1E6F6C286806
:1067F000EB6B05225B6901A907FB0400984701A820
:10680000FFF7A1FF0128ECD921460136E4E7F0B5F6
:1068100004680646091B446C0025B1FBF4F487B0FC
:10682000F36930685A1E9542776C06D3716C3068F4
:1068300001FB0400143007B0F0BD0134B4FBF3F1E8
:1068400003FB1144F36B05225B6901A907FB0400FC
:10685000984701A8FFF777FF0128E7D90135DFE75F
:106860002DE9F04F144607460D469946C36B89B093
:1068700001225B6905A960689847FB6B01225B698F
:10688000284604A99847059B5A1C06D10020A360FE
:10689000A075607509B0BDE8F08F01224FF0000CC3
:1068A000A275227E049904EBC202D561A2F820C031
:1068B0006668C1F3D310AE4201F07F020BD14FF0F6
:1068C000FF3320602275A360237D043B022B25D873
:1068D0000020A075DEE726688642207D18BF84F878
:1068E00016C090421CBF0020A07503F07F00012855
:1068F0008CBF00200120012A8CBF0022012290427F
:106900001CBF0022A27511F07E0F03F07E0300F081
:10691000E980002BD8D10023A375D5E711F07E0FB5
:106920000FD1FB6B022228465B6906A9984706A88F
:10693000FFF7A1FE237D032B3BD8DFE803F03535BD
:10694000040904A8F4E7CC21227E04EBC2021184DE
:10695000664AD35C049E129A16F07E0B18BF00267E
:106960001370237E08BFC6F3C16604EBC3035FFA4E
:1069700086FAB3F8208083F822A0BBF1000F00F064
:106980008C8000231B2204A906A88DF81830FFF77D
:1069900094FE9DF81830049AB3EBD26F0CBF01231C
:1069A00000230422637594E0227E04EBC20210846B
:1069B000CEE7227E062B04EBC2021084C8D9012345
:1069C000C8E794F816B0BBF1000F00F08880B8F16A
:1069D000000F09D1DEB10123617EE37500293CD1AE
:1069E0009E4218D1667614E07B6CA818594285EA5D
:1069F000000C1CEA010F1CBF0021A175591E0140AB
:106A00005B1A984569D8A37D002BE3D167E0E37D4D
:106A1000A3B94FF0000B28F003002844104418F0ED
:106A2000030F7B6C18BF04305B4285EA00021342FF
:106A300003D029463846FFF7EAFEA060A27D12B1D6
:106A4000236943442361237E012B0DD80133237630
:106A5000B9F1000F0BD1A07D1CE7012EEED0BAF1E9
:106A6000030F08BFA376D4E70023A375F3E7002A3A
:106A7000F1D0E37D002BEED0BBF1000FEBD1032E64
:106A8000E9D0A1684B1CE6D0129B22460093384601
:106A90000123FFF7E5FEA075DDE7FB6B02225B69D2
:106AA00006A928469847202206A90DF10F008DF867
:106AB0000FB0FFF702FE1A2207A9FFF7FEFD9DF8AF
:106AC0000F30079AB3EB926F0CBF0123002308220B
:106AD0006375637D002B7FF474AF0023A3754FF0C3
:106AE000000BABE7002B3FF4EFAE14E760020100B0
:106AF00013B50C46002100932176134661682246A7
:106B0000FFF7AEFE18B1E37D03B1A07EA075A07DB6
:106B100002B010BD70B50025044686B00562E36979
:106B2000AB4202D8206A06B070BD666C2068E36B89
:106B300005225B6906FB050001A9984701A8FFF73C
:106B400002FE012898BF236A05F101059CBF0133AD
:106B50002362E4E7F0B5002504462E4687B0E369DA
:106B6000B34202D8284607B0F0BD636C27680522FF
:106B700003FB0677E36B01A95B693846984701A8D8
:106B8000FFF7E1FD012809D8204607F11401FFF7BE
:106B9000C5FC636C143B834208BF01350136DEE758
:106BA000F0B504460D46466CE36B006887B00522DD
:106BB0005B6901A906FB0500984701A8FFF7C3FD23
:106BC000012804D801A8FFF796FD07B0F0BD2946BB
:106BD0002046FFF7FDFD0646676C2068E36B052243
:106BE0005B6901A907FB0600984701A8FFF783FD31
:106BF000431CEAD0B54238BF0130E6E7074B9A6C38
:106C0000DB6C110A0270120C82701A0AC2701A0C24
:106C10001B0E417002714371704700BF0080E00F8E
:106C2000114BD3F8243103F00703013B052B18D88F
:106C3000DFE803F0030C11140A0F05230B4A00B11F
:106C4000026001B10B7070470623F7E70323084A7F
:106C5000F5E70423FBE70223064AF0E707230022B7
:106C6000EDE700231A46EAE700800040C0EA210170
:106C700000F04902002D31010D4BD3F8203103F013
:106C80000303022B0AD0032B0BD0012B0CD10523BD
:106C9000084A00B1026001B10B7070470323064A35
:106CA000F7E70223054AF4E700231A46F1E700BF9D
:106CB00000800040C0EA210100F04902002D3101AE
:106CC0000D4BD3F8403103F00303022B0BD0032B01
:106CD0000BD0012B0DD109234FF4004200B102600B
:106CE00001B10B7070470823F6E70B234FF47A725B
:106CF000F4E700231A46F1E70080004010B40D4C81
:106D00000B46D4F8204204F00304012C0AD0022CD4
:106D10000CD008B1002101600BB100221A705DF89F
:106D2000044B70475DF8044BFFF7A6BF5DF8044BBA
:106D3000FFF7C6BF008000404FF40032104B30B563
:106D40009A6641F67132A3F580531D6F03F5203327
:106D5000C5F3033505FB0000DC690A4DDA639A6868
:106D6000A84204F4803422F4401203D9012918BF48
:106D700042F480129A600CB10022DA6330BD00BF89
:106D800000900040005A62024FF400321C4B70B574
:106D90009A6641F6713301221A4D0446EE69EB639F
:106DA000194B0021DA600223686121202B6106F46F
:106DB000803609F0E9F910B9212009F0E5F901223E
:106DC000124BDA600EB10023EB63431C14D0A8B958
:106DD0000F4B9B680A3303F01F020123934023F0FB
:106DE000030323449C4201D1002070BD54F8042BBE
:106DF0000132F7D00748F8E70748F6E70748F4E715
:106E000000900040000003400010034000200340B9
:106E10000080E00F0EE000F021E000F024E000F040
:106E2000002070B5836AADF50C7DB3F5C04F05D376
:106E30004FF4017420460DF50C7D70BD1B6B002BCB
:106E4000F6D04FF40B725B6A01A9984704460028FC
:106E5000F0D1064640F20125B36AB3F5C04FE7D240
:106E60001B6BB3F5C04FE3D200219B6A01A8984782
:106E7000A842F1D040F20323984218BF0446D9E754
:106E800037B50446684680E80600251D03C885E836
:106E900005002373069B0B4A2361BDF81C30A382B7
:106EA00000232360136853B119461B68002BFBD1E4
:106EB0000C609088013080B2908003B030BD1460C7
:106EC000F7E700BF3807002037B50D461446FFF737
:106ED000A7F970B1036973B14FF6FE72818A9142CE
:106EE00009D1694601200095ADF80440984703B0E8
:106EF00030BD0120FBE70E20F9E7036937B51446E2
:106F00000D46828A63B14FF6FE718A4208D1002095
:106F100069460090ADF80400984728B103B030BD31
:106F20002B6000202280F9E7009B2B60BDF8043025
:106F30002380F3E738B50D461446FFF771F940B1E9
:106F400022462946FFF7D9FF10B92B6803B92080E4
:106F500038BD0120FCE7000007B50379054A01931D
:106F6000036806CA009308300223FFF789FF03B0C5
:106F70005DF804FB000301002DE9F0410546984649
:106F800088B0036908460E4617469847002869D11D
:106F9000D8F804305B0A012B02464FEA530300F194
:106FA0000100F8D898F8034098F802302403DB0277
:106FB00003F4006304F480541C43B8F800304FF02D
:106FC0000008C3F30A032344540304F460441C443C
:106FD000294B6FEA0444039327F07843FF430DF1F4
:106FE00007001B2202A902938DF80780FFF765FBBB
:106FF0009DF80720029B02A943EAC26327F0784765
:107000001B22049302978DF80780FFF756FB9DF82B
:107010000720029B6FEA144443EAC26305934FF0D2
:10702000FF33012206930794AB6907A906F110000C
:10703000984701220446AB6905A906F10800984764
:107040000122404518BF0446AB6904A9301D98478A
:107050000122404518BF0446AB69304603A9984752
:1070600000B934B13146284608B0BDE8F041FFF719
:1070700011BB08B0BDE8F08101009AB2034B5A6D14
:1070800012B95865A3F85810704700BFD806002001
:1070900070B50C4690B9FFF755F958B1436B084DE0
:1070A00003F140062A4618685968083303C2B34200
:1070B0001546F7D1034B23600423A380002070BD45
:1070C0009C010020BC0100202DE9F0411646054638
:1070D000FFF7FEF9B04228BF304686B20F46B046F1
:1070E000B8F1000F09D12EB1AB7DDA0744BF23F010
:1070F0000103AB753046BDE8F0812B68AC8A696846
:107100001C44641AA4B2444528BF4446384622466B
:1071100008F05EFF6A682B68A98A224419448A42F3
:1071200038BF13462744A8EB04041FFA84F86B60A9
:10713000D6E7F8B51F46038A04461646EBB9C57D67
:10714000DDB10123013D0B700222C57500F1100174
:10715000FFF7BAFFE37D9BB1228A3146BA4228BFCE
:107160003A462046FFF7B0FF238A1B1A2382E37DAD
:1071700013B9638A1B1A6382F8BD00230B70EBE717
:10718000638A2382E8E72DE9F04104460F46114661
:10719000FFF79EF9A38A181A86B28E4228BF0E46C0
:1071A000B046B8F1000F0BD13EB1D4E901329A429A
:1071B00002BFA37D43F00103A3753046BDE8F08113
:1071C0002368A58AA0681D442D1AADB2454528BF85
:1071D000454639462A4608F0FBFEA2682368A18A84
:1071E0002A4419448A4238BF13462F44A8EB0505A8
:1071F0001FFA85F8A360D4E7F8B5044616461F4683
:1072000011B3FFF765F9A58A281A80B2012829D998
:10721000E37D63B1E068658A05702D0A07D02268B6
:10722000A38A01301344984228BF1046F4E7002394
:107230006382A3680222E360204604F11201FFF793
:10724000A2FFE37D0133E3753A4631462046FFF75E
:107250009AFF638A03446382E37D13B9238A03445C
:107260002382F8BD0020FCE710B5044644EA010380
:1072700013F00303084609D1934201D1002010BD49
:1072800054F8231040F823100133F5E7214692000B
:1072900008F09EFEF2E7000013B504460379124A97
:1072A0000333019300F14403009306CA0223143010
:1072B000FFF7E6FD94E80600238A04F12C00019311
:1072C000E3680093237AFFF7DBFD237A22792168B4
:1072D000A4F8450004F1470084F8443002B0BDE84A
:1072E000104008F075BE00BFF802010070B50C4BED
:1072F0000C4C06460D46D4E9010183E8030018460C
:10730000FFF72AFED4E904010222074B1A7283E830
:107310000300DE601D821846BDE87040FFF7BCBF69
:10732000501500203C0201002005002038B5202225
:1073300004460D460C30002108F057FE4FF0FF3395
:10734000C4E90035A36038BD2DE9F04F0F462DED9F
:10735000028B002589B004464FF0FF311046C7F379
:10736000130B904699468DF80B50FFF7DFFF5F45F2
:107370006AD12B46E1688B420DD0A26802EBC300B4
:1073800052F83320561C0FD0C2F3130293450BD191
:1073900041684D1C0AD1237C002B57D1464809B0C7
:1073A000BDEC028BBDE8F08F0133E4E74046FFF708
:1073B000BDFF0122414620460DF10B03FFF798FB6C
:1073C0000028E8D09DF80B3089F800300020E6E76F
:1073D0002068361A606CB6FBF0F63FE05046FFF7C7
:1073E000A5FF18EE102A514620460DF10B03FFF7BA
:1073F0007FFB8446B8B1B91C03D0DAF80030BB4239
:1074000011D145469DF80B30DFF8B0E089F8003027
:10741000BEE80F000FC5BEE80F000FC59EE80700CD
:1074200085E807006546DAF8081032E0002DB5D08F
:107430005F45CBD1394699F80030D8F8042004F1E3
:107440000800FFF7A3F8C1E7BB1CA4D1E66A701CD3
:10745000BED12046616AFFF7BBF90646BB1C18BFC8
:10746000012308EE103ADFF854A0636A25680193FF
:10747000636C03A903FB0655E36B05225B69284691
:10748000984703A8FFF75FF905F114031946002593
:1074900000934A1C05D0636C009A5B424A40134239
:1074A0009CD031462046FFF793F9019BB342BDD0F3
:1074B000002DBDD10646D8E70BE000F0F00E00200D
:1074C0002DE9F04F4FF0FF3300258B464FF6FF714B
:1074D000044600F10806C0E9091387B0C3620562DB
:1074E00005633046FFF740F82046FFF713FB0028FE
:1074F0005BD14FF6FF79D4F824800027C84514BF2C
:1075000045460025E3699F4252D32046FFF702FB20
:10751000002833D1B34D2046FFF71CFB06E123685A
:10752000E26B606C576900FB0530052201A9B84782
:1075300001A8FFF708F90128074603D0C31EDBB2F4
:10754000012B12D829462046FFF72AFB0246012FBD
:107550002168676CE06B434607FB051108BF0132E9
:10756000FFF70AFD2046FFF7D5FA0135E3699D4292
:10757000D5D32046FFF7CEFA0028BAD000254FF029
:10758000FF384FF6FF73C1462F46C4E90853E3693D
:107590009F423FD3A5EB0805012D5ED84FF6FF7241
:1075A000636A93426ED1904DB5E704F14008DDE780
:1075B000636CE26B2068D2F814C003FB050005225F
:1075C00001A9E04701A8FFF7BEF802280FD0C8457F
:1075D00015D10BF10102606C216804F1400300FB3E
:1075E0000511E06BFFF7C8FC2046FFF793FAE3694B
:1075F0000135B5FBF3F2013703FB125582E729464B
:107600002046FFF7CDFAB0F1FF3F14BF02465A46BD
:107610000132E0E7636CE26B2068D2F814C003FB30
:107620000700052201A9E04701A8FFF78CF8824670
:1076300001A8FFF760F8BAF1010F0CD8484538BF30
:107640006762804528BF8046854238BF054681462F
:10765000236A01332362013799E74FF6FF73002550
:107660006362E3699D4299D2676C2068E36B0522EF
:1076700007FB05005B6901A9984701A8FFF73BF8E4
:107680000135EEE7E26B676C2068556907FB030084
:10769000052201A9A84701A8FFF72DF8626A616CCD
:1076A0002368524D01FB02331433A3624FF0FF33C2
:1076B0002A46E3626FF0010120460DF10303FFF754
:1076C00043FE002836D1AD6829462046E562FEF724
:1076D00025FF206320B92046E16AFFF798F8E062B1
:1076E00029462046FFF793F80546A36A9D4223D119
:1076F0006369656C2046A5F11402DD1CB5FBF2F54B
:1077000003EBC5050335B5FBF2F5FFF723FA0235A8
:10771000A84280463ED22046616AFFF759F800270A
:10772000064604F1400AAF4218D3314D284607B04F
:10773000BDE8F08FA56AC7E729462046FEF7EEFEB2
:10774000236B29460344074623632046FFF75FF86F
:107750000546002FC9D1C4E90B07C6E7474512D338
:10776000626C236801A902FB0639E36B05225B69A1
:107770004846984701A8FEF7BEFF534602464946D1
:10778000E06BFFF7F9FB31462046FFF721F80137A0
:107790000646C8E73046FEF7E7FE164DA16AE36AE3
:1077A000994201D04B1C01D10025B4E62846FFF7D1
:1077B000BDFD0122294620460DF10303FFF798F98C
:1077C00030B1D5E9001230469DF80330FEF7DEFEF9
:1077D000A9684A1CE3D169682046FFF718F80146FA
:1077E000DDE700BF03E000F016E000F0C40E00206B
:1077F00013E000F01C0F00202DE9F74F89464FF4ED
:1078000000314FEA820A324A324D9166EA6901211B
:1078100002F4803341F671320093EA632E4A8046C7
:10782000D16083464A4657460FB938462EE00BF5DD
:10783000005424F4FF5424F01F04C5F814B0A4EB42
:107840000B04E969BC4228BF3C46490739D41646B7
:1078500056F8041B2244A96196420ED1042200214D
:1078600021202A6108F090FC80B9212008F08CFCCE
:1078700060B93246A3443F1BD6E70821084601926F
:1078800008F082FC019AC0B104232B610122134B42
:10789000DA60009B13B100220E4BDA63431C13D055
:1078A000A0B952464946404608F0B0FB00280C48B3
:1078B00008BF002003B0BDE8F08F56F8041BA96193
:1078C000CAE74FF0FF30E1E70648F3E70648F1E783
:1078D00000900040000003400010034000200340DF
:1078E00010E000F021E000F024E000F02DE9D34F9B
:1078F000DDF8289004460F4690461E46BDF82CA0A1
:10790000FEF78EFC8346BBF1000F01D0BC4205D9C7
:107910004FF6FF74204602B0BDE8D08F9BF80830C8
:107920009E421CD132464146DBF8040008F06EFB53
:10793000A8B9B9F1000FEDD058460DF1020201A926
:10794000FFF7DBFA58B9019949B1BDF80230534548
:1079500005D15246484608F059FB0028DAD00134D8
:10796000DBF800B0A4B2CEE738B50C461146256866
:107970000144AD1A2A4608F059FB256038BD0000C5
:107980002DE9F84F07EE901A4B4B4C49DFF84C911C
:107990005B1A4B49D9F800600B4423F4FF53A0EB6A
:1079A0000608DFF83CA123F01F039845054614465E
:1079B000CAF800807DD38718FEF7EAFE08B9FEF703
:1079C00097FC874272D8D9F800000719B7F5806F85
:1079D00003D982223B4B1A7066E0DFF8FCB02246E6
:1079E00017EE901A584408F0F3FA374BC9F80070B4
:1079F0001A6822B9332F57D9DBF834201A60186877
:107A000008EB070480451ED884421CD900F11003FE
:107A10009C4249D30644751B5D442B462B4A05F115
:107A2000100153F8040B8B4242F8040BF9D127489C
:107A3000FEF766FC10B98422224BCCE71022FF210E
:107A4000284608F0D2FA224D224B07F00307286897
:107A5000E41B1C4058B908EA0300C0F5005121445A
:107A6000FEF738FC2C6040B18522164BB3E7A042EC
:107A700003D2211A00F50050F2E7D9F80020164988
:107A8000D21BDAF80000FEF717FC0446D9F80020F4
:107A9000DAF80030D21B134410490F48CAF80030FE
:107AA000FFF762FF002CDFD1BDE8F88F8322054B82
:107AB00091E78722034B8EE714010020100000207D
:107AC000E76101007D0B00200C0E0020FC0D002062
:107AD0004C13002000E0FFFF480F00204813002057
:107AE000800B0020002337B5114C0093437A60606F
:107AF000D0E90021206802F0E8FE238CDB050CD5DC
:107B000063680C4D1B7A2A789A4206D0012B06D066
:107B1000022B08D063681B7A2B7003B030BD20683D
:107B200002F0A8FEF6E7206802F0AAFEF2E700BF26
:107B3000501300203507002013B50D4B01281B8B77
:107B40000C4CADF80430ADF8003002BF02238DF8C4
:107B50000430042301A9206808BF8DF8003002F02A
:107B600093FD6946206802F0A7FD02B010BD00BF7A
:107B70003C020100501300200022034B03211A6134
:107B80001868012202F0BEBA501300201FB502236C
:107B90008DF80630064B5A8B59690332ADF8042034
:107BA00018686A4602F01AFE009805B05DF804FBFA
:107BB0005013002010B51E4C1946236986B023B31C
:107BC000A2F10800084322D1032101AA206802F093
:107BD00001FE636860615B7A022023769DF80430C1
:107BE00004F11801DA1F53425341627E63F300022D
:107BF000039B6276E361BDF806306383236998478F
:107C000001220021206802F0EDFD06B010BD02F156
:107C10007F40014305D10021012006B0BDE810409E
:107C2000184712F4A0411ABF00210320FF20F4E7F7
:107C300050130020F0B5194C194D87B0637A2046D7
:107C40000133DBB2272B88BF25236372FFF74AFF7E
:107C5000627D4FF40073134902322868E768667C3E
:107C600002F095FD6B68104A5B7A06F00106D15C64
:107C700030460391FFF760FF01230022059303992B
:107C80002868009204AB049702F040FA10B1FFF7A5
:107C900073FFD3E7054B2B6107B0F0BD3401002023
:107CA0005013002048010020CD02010099990000E6
:107CB000EFF3108072B67047044B054A9A60D3F810
:107CC000882042F47002C3F88820704700ED00E07D
:107CD0000060000000487047C0EA2101084B1B6F9C
:107CE00003F00703022B04D0032B04D0012B04D094
:107CF000FEE704487047044870470448704700BFD7
:107D000000800040C0EA210100F04902002D31014D
:107D100008B5FFF7E3FF044B1B6FC3F303330133D5
:107D2000B0FBF3F008BD00BF00800040114B10B560
:107D3000D3F80032044603F00703013B032B16D8A7
:107D4000DFE803F0020A0C1009224FF4004004B1EE
:107D5000206001B10A7010BD0822F6E70B224FF433
:107D60007A70F4E7FFF7D4FF0E22800AEFE70022D3
:107D70001046ECE700800040B0F5807F07B50ED0DC
:107D8000B0F5C07F06D080281DD103B05DF804EBAC
:107D9000FFF7A4BF03B05DF804EBFFF7B9BF002302
:107DA00001934FF0E0231B695B0706D5FFF7B0FF97
:107DB0000190019803B05DF804FB0DF1030101A8E7
:107DC000FEF77EFFF5E70020F4E70000004870476B
:107DD00000F0490208B5FEF711FA7047FEE700000F
:107DE000420910B510D0012A10D00B4B0B4C022ABF
:107DF00018BF234600F01F0051B103F58053012244
:107E000002FA00F0186010BD1346F3E7044BF1E7E7
:107E100003F50053F3E700BF688000406082004034
:107E200064800040002307B5B0F5807F8DF80230F4
:107E300000F096802AD8382800F0AE800CD824387C
:107E400083B2092B10D809280ED8DFE800F083830D
:107E500083830D0D700D399D52287BD009D83D28A4
:107E60003ED03E2800F09E809DF8020003B05DF8F1
:107E700004FB8028F8D14F4B1B6F03F00703013B35
:107E8000032BF1D8DFE803F0514B4F86B0F5D06FEC
:107E90007AD01BD8B0F5A06F7ED00BD8B0F5806F2C
:107EA00058D0B0F5906FDFD100200DF10201FEF740
:107EB000B7FED9E7B0F5B06F39D0B0F5C06FD3D108
:107EC00000200DF10201FEF7FBFECDE7B0F5006FDB
:107ED000EAD013D8B0F5E06F64D0B0F5F06FC3D13D
:107EE000344BD3F8603103F00303022B5ED0032B35
:107EF0005ED0012B14BF0023092311E0B0F5086FF9
:107F0000B2D12C4BD3F8003103F00303022B4DD038
:107F1000032B3FD0012B14BF0123032300E00523D3
:107F20008DF80230A0E70323FAE70223F8E70021E7
:107F3000204B0191D3F8803103F00303012B04D0CF
:107F4000022B14BF0B460223EAE701A8FEF794FEBA
:107F50000F23E5E700200DF10201FEF78DFE83E718
:107F600001934FF0E0231B695B0707D5FFF7D0FEB5
:107F70000C238DF803309DF80330D1E70DF1030198
:107F800001A8FEF79DFEF6E700200DF10201FFF7C4
:107F9000CDFE69E70723C3E700200DF10201FEF7DC
:107FA000ADFE61E7034BD3F840329CE70823B7E707
:107FB0000B23B5E70080004000B962B670470000AF
:107FC0002DE9F04106460D4614460C4F0CB9BDE8AC
:107FD000F081EFF3108872B623462A4631463846C0
:107FE000FFF70AF903464046FFF7E6FF002BEDD006
:107FF000E41A0026A4B21D44E8E700BFB80C002034
:10800000002313B501F1080421461A46ADF80430E7
:10801000ADF8060051F8080C083170B90BB1ADF895
:108020000420042201200DEB02010834FFF7C8FFF1
:1080300054F8101C39B902B010BD51F80C3C1A4468
:1080400092B20123E6E7002034F80C2CEDE70000A3
:108050007FB500230130CDE9043380B2054BCDE973
:1080600001016946042000930392FFF7C9FF07B09E
:108070005DF804FBE201002038B501464FF04023D3
:10808000D3F88420D206FBD4D3F88430C3F3811311
:10809000994228D0FFF722FE0129044601D1FEF7BC
:1080A0004BFEEFF3108072B64FF000750E4A4FF0A2
:1080B000402355664FF480624D1EAA401A675A6EDF
:1080C000950103D4D3F88420920609D5FFF774FFF5
:1080D000022908D12046BDE838400021FEF72CBE19
:1080E000D3F88420EBE738BD0060004008B5C368D2
:1080F00000209847024B1868BDE80840FFF75CBFB6
:10810000D40D00202DE9F04FDFF8E8A287B09AF8EF
:10811000003006468946009203F0FF089BBBFEF73D
:1081200037FB0746FEF7E4F877B1A94BA94CD3F823
:1081300000B0C3F8008094F83430A0F50055ED1B72
:1081400053B323689F4206D000264046009B1E7012
:1081500007B0BDE8F08F63689D42F5D1A2689E4BE1
:108160009A42F1D1E368062BEED140F26C7362695A
:108170009A42E9D1E26B994B9A42E5D1C4F8188052
:1081800001238AF80030934F97F83430002B40F0E9
:1081900083800026B046D8E7A36B4022414604F115
:1081A0001000019307F021FF019B04F10800A36375
:1081B00040F26C736361884BC4E90075A3600623C9
:1081C000E360FEF7D1F9854B04F14000E36301F071
:1081D000CDFE00285ED1636C13B16268B2FBF3F38D
:1081E00094F84320E361002AAED0656C002DABD03B
:1081F000002BA9D02368B3FBF5F205FB1233002B4B
:10820000A2D16768B7FBF5F305FB1373002B9BD175
:108210007048FEF76AF9874296D340F63472636974
:10822000CC3B934290D8B5F5007F8DD303216948AC
:10823000FEF78EF9D4E90001E36B1B689847054609
:10824000E36B0220DB689847C5B959466148FFF7E0
:1082500037F9634B0546984204D159465D48FFF70C
:108260002FF9054655B9636C276A143B59485F439B
:10827000FEF73BF95B4B874238BF1D46B5FA85F3E5
:10828000E06B5B0984F83430FFF730FF002D3FF4DA
:1082900077AF59E74346A3E7DFF84CA10121384601
:1082A00046F48025FEF754F952462946384604AB79
:1082B000FFF74AF8044600283AD19DF81030032B06
:1082C00036D0022B37D0DAF81060F86BFFF70EFFCC
:1082D000002C7FF45EAF009B1B78B342FFF459AFD4
:1082E00097F83480B8F1000F3FF453AF01213948BB
:1082F000FEF72EF929463C4A36480DF10B03FFF7ED
:1083000023F8054660B99DF80B30012B74D1DAF8DB
:108310001030B34276D13546DAF804A0FB6B65B96C
:10832000F86BFFF7E3FE002D7FF433AFF6B20CE7F6
:1083300000262E4CC9E70426C7E701225B6903A982
:10834000504698472849039B0968C3F3D3129142CA
:108350003BD113F07E0F2CD003A8FEF78CF94FF021
:10836000040BA84228BF284603280446D344A5EBA3
:1083700000050BD9FB6B49465B6982085846984754
:1083800024F003039B4404F0030499445CB1FB6BA9
:1083900001225B6904A9584698474846224604A929
:1083A00007F016FEA14451460A48FEF730FA82460D
:1083B000B4E7FB6B02225B69504604A9984704A806
:1083C000FEF759F94FF0080BCBE7094DA8E700BFBE
:1083D00014040020480E0020100E0020B0020100FE
:1083E00013E000F002E000F0980E00200BE000F037
:1083F00022E000F0400E0020034D0448022B18BF7D
:1084000005468DE7024D8BE70CE000F00BE000F035
:1084100011E000F000239A6A10B5B2F5C04F0DD2FA
:10842000EFF3108072B6064A11781370FFF7C4FD9F
:1084300021B1BDE810409B6A1B6A184710BD00BF00
:10844000D80D002001282DE9F34740F03D818B88AD
:10845000012B40F03B810B681C7814BB9D4B9E4D5B
:108460001C609E4B1C609E4B1C609E4B1C609E4B78
:108470001C609E4B1C709E4B1C609E4B1C602B789E
:10848000022B01D1FFF7C6FF01232B7000239A4A6C
:1084900013709A4A13709A4A1370204602B0BDE8CE
:1084A000F087032C40F0FE80954BDFF82C921C786F
:1084B000002C40F0888099F80030002B00F0E68016
:1084C0008A4B1B78082B40F08280DFF80882D8F8AE
:1084D000000068B900239B6AB3F5C04F5DD34FF429
:1084E000017041F20804A0420CBF862480246AE097
:1084F00010F003060EBF2646C6F10406F6B200EBE6
:10850000060ABAF5806F00F2C7807E4B3246FF2123
:108510001844774F07F069FD7B4A3B6812680AEB05
:1085200003019142C8F800A000F2BA806B4A1568B6
:108530001D445544DFF8B0A125F4FF55DAF80000DA
:1085400025F01F05854207D9291A00F50050FDF7CF
:10855000C1FEE8B9CAF800500020836AB3F5C04FE5
:1085600018D21B6BB3F5C04F14D21D69654AD8F8F9
:1085700000303968A84705463B68D8F800205549BF
:1085800013449E1B5F483E60FFF7EEF9002DA1D01B
:10859000852418E04FF48175EEE7FEF741FC0028D2
:1085A0009FD1836A0190B3F5C04FF1D21B6BB3F535
:1085B000C04FEDD201219B6901A898470028E7D15F
:1085C00001224E4B1A70002389F8003065E7002B1A
:1085D0005ED0494B1B78002B5CD0464E336843B9C4
:1085E000404B102249491868FDF766FE0028EAD082
:1085F000CEE713F003021CBFC2F10402D2B203EBB8
:108600000208B8F5806F47D84148FF21184407F0A9
:10861000ECFC404A404B324F9B1A404A3D681344A1
:1086200023F4FF5323F01F03AB42C6F8008035D874
:10863000A844FEF7ADF808B9FDF75AFE80452FD8DB
:108640003368DFF8A4801D44D8F8000025F4FF55F6
:1086500025F01F05854208D9291A00F50050FDF7BD
:1086600039FE002894D1C8F800503268284938688B
:10867000FDF722FE05463B6832681E491344244834
:108680003B60FFF771F9002DAAD081E781249AE7BA
:10869000842498E7802496E7822494E7872492E74D
:1086A000832490E7042C13D1132302211C48437028
:1086B0000170FEF7E3FC1B4A1B4B128905329A80BE
:1086C0001A4A1A6042789A710024E6E60D24E4E61C
:1086D0000624E2E6780B00207E0B0020B015002077
:1086E000800B00200C0E00204C130020DC01002029
:1086F000840B0020481300207C0B0020E90100209F
:108700007D0B002078070020B4150020FC0D002010
:10871000480F00201000002014010020E761010034
:10872000F00D0020D8060020DC0D00209D9E0000EA
:1087300000239B6A10B5B3F5C04F0ED2EFF3108043
:1087400072B60121054A13781170FFF735FC23B981
:10875000BDE810409B6ADB69184710BDD80D0020AA
:108760004FF040232DE98048D3F89430A5B05E0641
:108770001BD44FF0005300251CA81D60FDF778FDA9
:10878000FDF7E0FDC0B1446BFFF7D2FF1E9B13F075
:10879000040600F0BB81FDF7D5FDAB6AB3F5C04F11
:1087A000C0F0E181FFF736FE06E04FF000531A6893
:1087B000022ADED100221A60BFF34F8FBFF36F8F02
:1087C000B14BB2485A6AB24C22F480325A62D3F8A2
:1087D0009420844222F00102C3F8942008BF4FF095
:1087E0008042D3F8C0101CBF20F01F02203A21F0B5
:1087F000FF0141F0A001B2F1005FC3F8C0100CD33B
:10880000A44DA54E296842F00102C3F89810013129
:10881000C3F89C60C3F8A0202960844210D09D4812
:108820009E4B0268984923F01F0343F00303C1F8ED
:108830009820C1F89C309A4B0132C1F8A0300260F8
:10884000BFF34F8FBFF36F8F05228F4BC3F8942078
:108850005A6A42F480325A62BFF34F8FBFF36F8F70
:10886000904B1B68C3F30743012B0ED18E4B0420A2
:108870005A6E4FF480238D49550358BF8C4A4B667E
:1088800001F51041086258BF536601204FF00047C0
:108890004AF6CD344FF040224FF0070C834E854D01
:1088A000854B77666860596C1C64C2F83CC09A6856
:1088B000014022F0740242F044029A6040F2091230
:1088C0001A6140F203125A61776668605A6C1C6440
:1088D0009C680240E40700F14E810124774844601F
:1088E000002A40F04E8111B1734B754A1A64802002
:1088F000FFF798FA032842D04FF400226B4B022175
:108900005A6645F60E0203F54053C3F880206D4ABF
:108910009162012102F5805291629A6DD703FCD4D5
:10892000694A1A619969694A01F000410A439A61EA
:108930001A6A22F00D021A629A6A22F0330242F099
:1089400001029A62624B634A996D32EA0101FBD1DE
:1089500002225C498A621A659A6D5600FCD41A6933
:1089600022F4700242F400121A614FF00042554B9B
:108970009A61022203F580539A6201229A624FF4AF
:1089800000230122494E484D7366514B02209C6AD8
:1089900003F580539A62FFF76FFB4F480021FEF703
:1089A000CBF92B6F04F0020443F480632B674FF480
:1089B000803333672B6F23F0070343F003032B67E8
:1089C000FFF7A6F94FF04023D3F8841011F01001FF
:1089D000FAD1D3F88430C3F38113C3F10203002B1F
:1089E000C8BF0121FEF7A8F9FFF778F90220FFF7C9
:1089F00043FB4FF4C070FFF7BFF938492A4A884259
:108A000094BF00200120136F23F4806343EA802386
:108A100013678020FFF7B0F9314B98429EBF4FF4A7
:108A20008032234B1A6714B901222E4B9A6201211E
:108A30003020FFF7D5F910221B4B2B4D9A66C3F857
:108A40008012184B69601B6C04242B66002306AA55
:108A5000352008A908938DF81840FFF753FB06232B
:108A6000089A8DF8164012F4803F8DF8173009AC43
:108A700040F0FA8221462C200DF11702FFF742FB4D
:108A8000002800F09A8031E000ED00E0B8000020FE
:108A90000C0100204C150020030000202B010020B9
:108AA000E1FFFF3F0080E00F0080004000900040A9
:108AB00000A000400050094000400940006009400B
:108AC0003254FFFF00D000402008B00B3C8C8C03D8
:108AD00000C000400300014000B4C40480F0FA026A
:108AE000005A620200E0004000C001A83C200DF1E5
:108AF000160207A9FFF706FB18B19DF81C0000F04D
:108B000001009DF82A3060F3000352E0002C3FF48E
:108B100049AEFDF7EDFB8442BFF444AEFDF7E8FB40
:108B200004F1400383423FF63DAE2046FDF7E8FBEB
:108B300000283FF437AE63696BB9FFF76BFCFDF7B4
:108B400001FC0446FDF7FEFB0F4B986023689D4631
:108B50006368984730E69DF87030012BEDD1FDF742
:108B6000F1FBB36A1AE65B6A98470446FFF752FCCA
:108B7000002CE4D120E6054CA060D86AC007FCD5E3
:108B8000ABE6034A1A64AEE600ED00E0006009407F
:108B90003254FFFF296E02F8011B013BFAD29DF807
:108BA000293063F03F038DF829309DF82A3043F0D7
:108BB00001038DF82A30C24B5C6000244FF48071B1
:108BC000C04BC14A5961C3E900229A601C82BF4B65
:108BD000BF4A5961BF48C3E900229A601C8201F074
:108BE000F9F9BD48BD4B21460360BD4BBD4E436006
:108BF00001F06AFAB0A3D3E900233060CDE9002385
:108C00004FF0FF334FF0FF3201F05AFD02224FF0D8
:108C1000FF31306801F061FD3C2394221E93CDE9C1
:108C20001C329623B04D1CAF39463068CDE9204444
:108C300022941F9301F00EFB294630682C7001F03E
:108C40007BFD28B10123294630682B7001F074FDAB
:108C50009B4C306801F00AFEB4F900202978306896
:108C600001F0C8F90146306801F04EFD6468DFF894
:108C700004A3002C40F0FA815046FDF7BFFFB37B00
:108C800064F30003B3731022984B994C83F82123AB
:108C9000002183F8222304F1080083F8262383F8B7
:108CA000252383F8232383F8202383F824235C22BD
:108CB00007F09BF942F210738E4DE3608E4B8F4AA2
:108CC000C4E9005342F2015323814FF4907333847B
:108CD000012313701B224FF00008894DDFF8989292
:108CE0002A803E2005AA0DF11501C9F800808DF8F3
:108CF0001430FFF707FA58B19DF81530CDF87080A1
:108D00003946C7F8048030688DF8723001F0E2FC13
:108D100011230DF113020FA936208DF81330FFF740
:108D2000F1F92023394639200DF112028DF8123065
:108D3000FFF7E8F980BB734B9DF8132018681B7987
:108D40001C903B71002A00F09A811B2A28BF1B222D
:108D5000531D8DF812300FA9531C0DF175008DF8BD
:108D6000733007F035F914A8FDF748FF664A9DF8FF
:108D70001230128824A9FA529A1C51FA82F2002168
:108D8000149802F8201CBDF85410093342F81F0C47
:108D900022F81B1C8DF8123020233A200DF111020D
:108DA00014A98DF81130FFF7ADF948B9574B5A8B1C
:108DB0001B7FADF850208DF8523003238DF8113011
:108DC00000224FF00208524B5248C3E90022524B96
:108DD00080F804800360FEF7BFF85048504B80F8DD
:108DE0000480036010230372FEF756FA4D484E4B81
:108DF00080F8048003604D4B80F80880C360A0F8C1
:108E00001080CDE90038434690E806001430FEF7A4
:108E100037F89DF81310002900F03C810FA84FF09F
:108E20001008FEF763FA4248424B80F80480036062
:108E3000FEF792F84048414B4FF6FE7B0360082353
:108E40003F4A0372C260A0F810B080F80480FEF7B9
:108E500023FA3C483C4AA0F810B002600C2202728F
:108E60003A4A4FF0020BC26080F80480FEF714FA11
:108E700008233748374A03820260374A80F8048063
:108E8000C26080F808B0FEF707FA3448344B80F827
:108E900004800360334B80F808B0C3600123038271
:108EA000FEF7FAF93048314B80F804800360304B0C
:108EB00080F808B062E000BF0855005100000000D3
:108EC000EC010020B80C0020D00C0020A00B0020EA
:108ED000B80B00200803010080130020B57B0000C0
:108EE00074130020501300201200002000E100E065
:108EF00034010020D6BE898E55555500D00D002076
:108F0000DE010020A9010100B30101003C020100C3
:108F10003807002070150020B601010078050020F8
:108F2000B90101004C070020BC0101005A020100F8
:108F300090150020BF010100D0050020D0010100E4
:108F40004584000028060020E1010100299400006A
:108F500070040020F2010100670201008006002079
:108F600003020100CC020100C80400201402010029
:108F70009D6200005813002010040020C3604FF6CB
:108F8000FE730382FEF788F9A648A74B80F8048099
:108F90000360A64B80F808B0C3604FF6FE730382EF
:108FA000FEF77AF9A24BA34A1A604FF6FF729A8035
:108FB0009DF81220202A05D8931D39469E486375D6
:108FC00007F006F89DF81120202A06D8931D9B482B
:108FD00084F83D3014A906F0FBFFFEF7CDFD227C9E
:108FE000617CB2FA82F35B0963F30001237D617453
:108FF00062F30303B27B02F0010262F3861323756E
:10900000637D0BB906236375BAF804108C4BB06806
:10901000C4F816009980042194F83C3061F30303EE
:1090200062F3861384F83C3094F83D3013B906237C
:1090300084F83D30B068BAF80420824BC4F83E0092
:109040009A80FEF7F7FD804E804B1B782BB1DFF83E
:109050000C824046FDF73CFAF8B97D4A136923F0CB
:109060000403136130BFEFE7224696E52068B06045
:10907000A288A379AAF804208AF8063003E6082318
:109080008DF81230734B1A889B78ADF875208DF8E7
:10909000773068E603216F48C1E6EFF3108472B6BB
:1090A000002340461A460DF11901FEF742F820460A
:1090B000FEF782FF9DF8193013B10023C9F8003084
:1090C000D9F80020EFF3108472B6C2F501739BB299
:1090D000404632440DF11901FEF72BF803462046B5
:1090E000FEF76AFFD9F8000018440328C9F8000009
:1090F000AFD93488231D9842ABD306D8708800239B
:10910000042806D0062800F07D810023C9F800302D
:109110009FE7327904F1FF3A122A6B801FFA8AFA2C
:1091200018D8012A19D9931E4B4F102B15D8DFE8F8
:1091300013F0160014002C00140045001400F60073
:1091400014009900140014001400140014002301EA
:109150001400C900522A00F0CF800622A9E0BAF11B
:10916000020F40F04D81B6F805400022B4F5007FB3
:1091700028BF4FF400740323114650463B70A7F8F4
:109180000140FEF765FF2C80BFE7BAF1040F40F005
:109190009080B6F80540A0B2FDF742F858B1027AC7
:1091A0000521022A0CBF01230223397041687B701C
:1091B0007C80032075E06C800A227AE0DFF8A0B0A2
:1091C000073CA4B20194CDF800B00223B6F8071012
:1091D000B6F80500ABF10202FEF788FB4FF6FF7A06
:1091E0005045044604D17368C3F30F236B80E3E753
:1091F00000230130CDE9003351460223ABF10202D6
:1092000080B2FEF773FB072350451CBF00F1FF300F
:1092100080B23B70A7F80140A7F8030000220420A9
:1092200011463EE018040020250201009170000064
:10923000400700203807002050010020780100205E
:109240004A010020720100200C0200203407002097
:1092500000ED00E0AF010100E2010020A00B0020C2
:1092600017020020BAF1020F40F0CA80B6F80500DC
:10927000FCF7D6FF00283BD0037B990714D52B8839
:109280000DF11A02013BADF81A30B6F805000BA932
:10929000FDF750FE024640B90B23BDF81A200B998A
:1092A0003B70FEF7D5FE30E752467368C3F30F23D9
:1092B0006B800124584B307969881C705870598034
:1092C0001A71ABE7B6F80500FCF7AAFF80B1037B83
:1092D0001A070FD5E21E92B25049B6F80500FDF705
:1092E000F3FD02460028E0D1132301463B70D8E786
:1092F0000122DAE70322D8E7B6F80500FCF790FF71
:1093000000283FF402AF037B5B077FF5FEAEE21E51
:109310004249B6F8050092B2FDF7D6FDF5E6631FA7
:109320009BB2022B01D0102B6AD10022CDE9002282
:10933000DBB23B4AB6F80710B6F80500FEF7D6FADE
:109340004FF6FF73984204463FF44DAF2B880DF162
:109350001A02043B0BA9ADF81A30FDF7EBFD0246EB
:1093600008B16C80A5E70923BDF81A203B70931C57
:109370000B997B707C801CE7631F9BB2022B01D092
:10938000102B3DD14FF0000ACDE900AADBB20393C8
:10939000234AB6F80710B6F80500FEF7A7FA4FF60D
:1093A000FF7B58450446039B3FF41DAF01305946EF
:1093B000CDE900AA1A4A80B2FEF798FA82462B88B5
:1093C000584518BF00F1FF3AA3F106030DF11A0248
:1093D00020460BA918BF1FFA8AFAADF81A30FDF71C
:1093E000A9FD02460028BCD11123BDF81A203B700C
:1093F000131D05200B997B707C80A7F804A050E713
:10940000042256E7CDE90D33064B0BA90B9302233B
:109410000C93FEF7F5FD78E6E20100201302002030
:1094200015020020100000202DE9F04F012891B016
:1094300004D00024204611B0BDE8F08F8A88002AAD
:1094400000F0C781A24F97F800A0BAF1000F00F01A
:10945000C281A04D2C78002CECD1DFF8A8B29BF88B
:109460000040002CE5D19C4E306802EB0009B9F5B4
:10947000806F02D982242C70DCE7DFF874820968DF
:10948000404406F0A5FDBAF1020FC6F8009032D0B4
:10949000B9F1030FCDD99148FCF7EAFE0378D8F86B
:1094A0000020012B3DD14368190E012903D1C3F3DC
:1094B00007430A2B3DD98A4B9A4240F0D8808368F3
:1094C000DA0334D502233B70FFF732F90020836AB8
:1094D000B3F5C04F06D21B6BB3F5C04F02D29B68E9
:1094E00009A998477F4B099A1A607F4B0A9A1A601C
:1094F0003B78022B9DD1DFF81092336899F8002059
:10950000082A59D1DFF8F081774AD8F800001268AC
:1095100003F0030AC118A1EB0A0191420BD983247D
:10952000A9E76F4CA2420CBF86248424A3E78624BB
:10953000A1E788249FE76B4A17681F4407446B4BD9
:10954000A7EB0A07186827F4FF5727F01F07874281
:1095500009D9391A00F50050FCF7BCFE634B08B17D
:10956000852488E71F600020836AB3F5C04F20D2AE
:109570001A6BB2F5C04F1CD233681769D8F80010C7
:109580005B4AA3EB0A03B84707463268D8F80030B5
:10959000A2EB0A02134450495548C8F80030FEF7C0
:1095A000E3F9002FDCD199F80030002B7FF441AFB4
:1095B00004E04FF48177E8E7002A5AD133687F2B23
:1095C0007FF637AFDFF83481D8F80000E8B9836A56
:1095D000B3F5C04F13D20123CDE90A0009A88DF8D5
:1095E0002430FCF745FE0A9B1A0E6ED0012A67D183
:1095F000C3F307430A2B63D867D14FF403703D4B85
:10960000186006F0FBFCC8F8000000239B6AB3F565
:10961000C04FA5D2374A9B6A1168D8F80000984716
:1096200000289DD1836AB3F5C04F20D20123326850
:10963000CDE9070006A88DF81830D8F800A00392ED
:10964000FCF716FE079B190E11D00129039A03D1CE
:10965000C3F307430A2B0AD9002305A99B6A00918B
:109660005F6B5046224909ABB84700284ED084248E
:1096700001E721490A681A440A600022926AB2F599
:10968000C04F13D21D48D76A1D49194A0068B84710
:109690000746326810491648FEF766F940F2032380
:1096A0009F4206D101238BF80030C3E640F2022727
:1096B000EFE740F201239F423FF475AF8024DAE6E2
:1096C00000239B6A9B6B984799E74FF4C07096E71D
:1096D0007E0B00207D0B0020780B00200002002074
:1096E000EB17A603B0150020B41500204C13002082
:1096F000780700209C0B0020840B0020980B002092
:10970000880B00207C0B0020DC0100209DF8243019
:1097100089F800300393FCF715FE039B074648B316
:10972000D0F834A0002B3FF485AE00230693042329
:1097300035200DF1130206A98DF81330FEF7E2FC77
:10974000069BDB071AD599F80030082B14D0BAF124
:10975000000F42D0534610220CA903F128000393B6
:1097600006F054FC20B9039B0A9A1B6A9A4205D85A
:10977000892480E68246D5E7304BECE797B14FF479
:1097800000513846FCF7A6FD00287FF4E9AE2AF424
:10979000FF504FF4005120F01F00FCF79BFD002804
:1097A0007FF4DEAE99F80030082B18D1244B254AFF
:1097B00018684FF4005120F4FF5323F01F03136087
:1097C000FCF788FD00283FF435AEC9E640F20227D9
:1097D00024E00D242EE681242CE6002FCFD11A4B55
:1097E0001A4F7B6000239B6AB3F5C04FBFF4B8AE3D
:1097F000174A9B6A1168D8F80000984700287FF440
:10980000AFAE836AB3F5C04FE0D23946D3F82C909F
:10981000104A3368D8F80000C847074632680E4936
:109820000C48FEF7A1F840F203239F423FF43AAF01
:1098300040F201239F423FF4FDAD3FE7700201007B
:10984000B01500204C13002081790000880B002007
:109850009C0B002078070020780B002008B5074BF0
:109860004FF000541B782BB1FEF762FF044B2360CE
:10987000FCF7C4FC2360FCF7C1FC00BFE901002039
:1098800002020FF010B5164CA37E5B0626D4FEF73D
:1098900073F940F2E243A18C226803FB0122A37A10
:1098A000226094F84F2013442522B3FBF2F002FB10
:1098B00010332289A372013222810A22636802FBDB
:1098C00001336360238B5A1E22833BB9A27E42F090
:1098D0004002A276034A1370FFF7C0FF10BD00BF1D
:1098E000D806002034070020F0B5254C87B0A37EB1
:1098F0005A0640D4234A23F0070343F00103A3761A
:10990000136821891BB192888A4200D19847A37AB3
:109910001D48234493F82A306375FEF7E3F8D4E931
:1099200000561A4C1A4A636801205B7A7708D15CAA
:10993000A5EB56060191FEF7FFF84FF480730296EF
:109940000026643501993D44ADF8143002AA33462F
:10995000206804958DF80C608DF8166000F0FEFB11
:10996000054601223146206800F03CFF2DB1FFF78B
:1099700089FFFFF7B9FF07B0F0BD064B2361FAE797
:10998000D8060020DC0D0020E40600205013002043
:10999000CD020100019B000002282DE9F0411DD0FD
:1099A00002D8012807D0FEE7032800F09E80FF2898
:1099B00000F09B80F7E74E4C637C990707D5FEF7D4
:1099C000DBF8FEF737F9637C6FF341036374637C64
:1099D000DA0768D4BDE8F041FEF72CB94B78DB0715
:1099E00040F183804C68227802F00F08B8F1030F31
:1099F0005BD0B8F1050F78D13E498B7B03F00103B2
:109A0000B3EBD21F4FD10622083104F1080006F053
:109A1000FDFA0646002846D1FEF7AEF8FEF7B6F886
:109A2000354D314607465C22284606F0DEFAAB7E0D
:109A3000A5F8188043F02003AB76627E237E0126D2
:109A400043EA0223AB84627F237F04F11E0043EAD2
:109A50000223EB8494F82330C3F3040385F84F30DA
:109A600094F82330C3F3421385F850301B232B8521
:109A7000FCF7A8FCD4F80E30E27CEB60A37C2F60EE
:109A800043EA0223227D2E7543EA02432B6195F8B7
:109A90004F30607DAB72E18A3144FCF7CFFCFFF7B9
:109AA00023FF164B1E70BDE8F081124DAB7B03F017
:109AB0000103B3EBD21FF6D1062205F1080104F130
:109AC000080006F0A3FA0028EDD1094C4FF400730A
:109AD00094F83D202868023204F13C0100F057FE62
:109AE000637C43F002036374DDE7FEF745F871E73A
:109AF0003401002050130020D80600203407002035
:109B000002282DE9F34780460C460BD003D80128E4
:109B100000F0AE81FEE7032800F0B081FF2800F0DE
:109B2000AD81F7E74B78AB4D13F0010300F0BC803B
:109B30004A68AF7E117892F80090C1F3001161F38A
:109B40008207AF76C9F3C001C7F30017B94240F0EE
:109B5000A88009F00301022900F0A180032918D090
:109B6000012940F09E804FF0000A567896B19A483D
:109B7000818AFCF7ADFC0B1A9BB2BAF1000F04D03E
:109B8000022B92BF0023023B9BB29E428CBF00235C
:109B900001231E46A97EC9F38009C1F3C002914585
:109BA00008D082F00102D20042F0200221F0280108
:109BB0000A43AA762BB1AB7E87F0010767F3041343
:109BC000AB76AB7E854F13F0200F11D0696D6FF32C
:109BD0004513AB76002969D03B7895F8582043F0BF
:109BE00003033B707A70B81C06F0F2F900236B6532
:109BF0007B48FCF76DFC003818BF0120AB7E77492D
:109C000060F34103C3F3C002AB76C3F300139B00C0
:109C100043EAC20343EA00103B787A7823F01C033E
:109C2000184338706F4F02324FF400733868D2B265
:109C300000F0ADFDAB7E6468D90709D56FF3000372
:109C4000AB7600236B60FDF7A1FF2860FCF70AFCF0
:109C5000002E00F0A180237803F00303022B05D02F
:109C6000032B3DD0012B40F0978000265A486578A1
:109C7000818AFCF72DFC081A80B226B1022892BF17
:109C80000020023880B28542ABB200F285803146B6
:109C90005148A21C02B0BDE8F047FDF7ADBA9A46A4
:109CA00063E70026334675E71E468AE795F82830B5
:109CB0004B48BA1C0DF10701FDF73BFA10F0FF000D
:109CC0000BD09DF80730002B08BF4FF001083B7800
:109CD000787068F301033B708AE74FF00108F6E7FC
:109CE000A3780C2B0AD80C2B0AD8DFE803F03F2B03
:109CF000580909090909600909091800142B7FD0BE
:109D0000394A12782AB1162B00F09680182B00F0F1
:109D1000A280072235480221027043700DE00C2317
:109D200032484FF0FF3203700123827043700222E9
:109D3000037100230621C270437102B0BDE8F047F1
:109D4000FDF79CB9617A237A294A43EA012393807B
:109D50001346284943F8061BD4F80310C2F806102E
:109D6000B4F807209A80627A9A7115E0627B237BAF
:109D70001F4943EA02238B800B461F4A43F8062BF8
:109D8000D4F80320C1F80620D4F807205A60B4F8AC
:109D90000B201A81627B9A7202B0BDE8F0872A8993
:109DA000134B05329A80154A1A60E278DCE7D4F842
:109DB00003303A8C0D48134003F0FF0322F0FF02FA
:109DC000134309210246C0F80130002302F8011BA9
:109DD0005360B2E7D8060020A00B0020B815002081
:109DE000B80C002050130020D00D0020F00D0020F2
:109DF000DC0D002029640000A16400009D9E00008D
:109E0000B4F80530B4F80320DB08934228BF1346AA
:109E10002B8515231D4800216FF004046FF02702E5
:109E2000037007238170817144700921C27003712E
:109E30004471C271037280E72279E37813481340BA
:109E400003F00303022B18BF012317220321027022
:109E50004370837071E76279A1790D4B42EA012268
:109E60009A800C4A1A60D4F80320C3F8062093E7BE
:109E7000094B9B7E9A078FD45B078DD4FFF702FDB9
:109E800002B0BDE8F047FFF72FBD00BFF00D002086
:109E9000DC0D0020AD630000D8060020054A08B59F
:109EA000937E43F0400393760022034B1A70FFF732
:109EB000D5FC00BFD806002034070020EFF3108047
:109EC00072B67047FEF778B8F0B54AB10125302672
:109ED0001C4C8D4006FB00440BB341F21006A5510B
:109EE00030244443072904F1804404F5703419D820
:109EF0000F2765688E00B74025EA070502FA06F6C7
:109F00003543656052B90122302402FA01F10D4A4D
:109F100004FB00209BB141F21003C150F0BD42F29E
:109F20001006DCE70F27A1F10805E668AD00AF4099
:109F300026EA070602FA05F53543E560E2E742F254
:109F40001003EAE700C003404FF48032064B5A6624
:109F500003F5E6235B69C3F38512827003F03F02C9
:109F60001B0B4270037070470090004007B501461C
:109F700001A8FFF7E9FF9DF8063001220B804FF49E
:109F8000807300204B80054B9B680A3303F01F034E
:109F900002FA03F34B6003B05DF804FB0080E00FAE
:109FA000FEE7000008B5FDF787FE074B0748DA1CFF
:109FB000121AC11E22F00302994288BF00220449EE
:109FC00006F006F8FCF7E0F814010020100000206D
:109FD000A841010038B50446054D00F0C3FB0FCC85
:109FE0000FC594E8030085E80300002038BD00BFDA
:109FF000B816002047F6FF739A42F0B55ED00229EA
:10A000005ED8304ECF0016F8313006EBC100012B80
:10A0100085780DD1C3785B1B23B1416831F91310EA
:10A02000914202DCE818C0B2F0BD013B1BB2F3E77D
:10A0300040680028F8D0B0F90030934204DBB0F952
:10A0400002309342B8BF134682883E44FF2A19BFAC
:10A05000C8242821B0F90640B0F90810A4EB030485
:10A060000CBF0122002294FBF1F47678224414B252
:10A07000721EA242A8BF22464FF47A7700EBC204B8
:10A08000E188A468013213FB014112B221EAE171B7
:10A0900001F5FA71B242B1FBF7F104DA00EBC20448
:10A0A000A4888C42EAD200EBC20232F8040C884247
:10A0B00028BF0846A84238BF2846B4E7FF20B3E7C8
:10A0C0000020B1E7B816002037B50446019178B1F9
:10A0D0000A4D2B787BB90A4B186000F08DF82046AA
:10A0E000019900F07AF8031E18BF012304462B7073
:10A0F000204603B030BD0024FAE700BFD41600208C
:10A10000D01600200846114600F08AB8F7B5124D67
:10A1100004466E680F4600200121CDE90032B047A9
:10A12000DDE90032064604B10C342046394601F020
:10A130008DFD044618B901202B68984704463EB1AE
:10A1400000F0D8FB00B91CB100216B6808469847A5
:10A15000204603B0F0BD00BF20000020F7B5114D30
:10A1600004460F46002001216B6801929847019A2E
:10A17000064604B10C342046394600F0B2FA0446D3
:10A1800018B901202B68984704463EB100F0B2FB95
:10A1900000B91CB100216B6808469847204603B0FF
:10A1A000F0BD00BF2000002070470000431E0333B5
:10A1B00006D8044B984228BF1846642838BF64204C
:10A1C000704700BF40420F00431E012B03D9031FFD
:10A1D0005842584170470120704738B504460D4633
:10A1E000002100F08FFA2946204601F079FB002873
:10A1F0000CBF2046002038BD10B5044600F0B2FD6B
:10A2000044B1054AD4F88830002B08BF1346034AEE
:10A21000136010BDE36FFFDEA9A10000180000204D
:10A2200010B50C4600F0B0FD1CB100F003FE012893
:10A23000FBD1BDE81040024B002103205B681847AA
:10A240002000002000B10C3000F0D0BE00B10C3076
:10A2500000F0E2BE08B502460868FFF7A7FF0860F5
:10A260004868FFF7A3FF48608868FFF79FFF886092
:10A27000C868FFF79BFF0B69C860581C03D00C48E7
:10A28000834228BF03460B614B69581C03D0084822
:10A29000834228BF034688694B61FFF787FF8861C7
:10A2A00002B10C321046BDE8084001F073BB00BF9C
:10A2B00040420F002DE9F04F436F80460E4683B0B9
:10A2C00013B103898B427AD0D8F87070002F46D032
:10A2D000BC68002C43D0F968002940D0D8F88430FD
:10A2E0000193002B3FD04FF00009A8F10C0B4D4615
:10A2F000CA4600E0BC68C5EBC50204EB8204E289F3
:10A300000135B24216D8228AB24213D3B4F91210E0
:10A31000B8F9320101EAE172884259DD584698F8ED
:10A32000C010FFF767FE98F8052081468242A246DA
:10A3300005D9F968A942DDD8BAF1000F46D000234B
:10A34000524640461946019CA0470020A8F80860E4
:10A35000C8F874A088F8C99003B0BDE8F08F032056
:10A3600003B0BDE8F08F99461D469A46A8F10C0B44
:10A37000C5EBC50204EB8204E289B2421AD8228AF4
:10A38000B24217D347F6FF73B4F912209A4203D1B1
:10A39000A2464FF0FF09D8E702EAE272584698F861
:10A3A000C010FFF727FE98F8052081468242A2469A
:10A3B000CBD9F9680135A94205D9BC68D8E7002096
:10A3C00003B0BDE8F08FBAF1000FBED10120C3E7A2
:10A3D000A246B4E72DE9F04FDFF8B0B185B00446EE
:10A3E00016461F46009101F03EFCBBF8005001F0FC
:10A3F00043FC00287CD1DFF89881636FD8F80020F7
:10A4000093426AD000F016FD01284FD1DFF884A1F5
:10A41000DAF80030002B5BD0226F934270D0D4F872
:10A4200074C01868116810B1884200F08380DCF8AD
:10A430000020204601F0C4F90023012605460193BF
:10A44000D4F884908DF80F70B9F1000F67D0002216
:10A45000204611460DF10F03C84785B9236FCAF88E
:10A460000030636FC8F80030019B0BB9002E3AD062
:10A47000009B2046CBF8003000F03AFF05468EB135
:10A48000B5FA85F040F2A3223321400900F0C4F967
:10A490003946204601F0A0F93A4B616F1B68A4F1E0
:10A4A0000C009847284605B0BDE8F08F012000F069
:10A4B0006BFC00F0BFFC0128FBD1334BDFF8D4A0CC
:10A4C0005B68002103209847DAF80030002BA3D105
:10A4D000236FD4F874C01968A9E7002B92D0009BB1
:10A4E0009D428FD187BB0025284605B0BDE8F08F7F
:10A4F0000023DFF89C80C8F8003001F0B5FB7CE752
:10A50000D8F80010D4F874C000298AD0614588D1E9
:10A51000009BEB1A18BF01230025019390E7617996
:10A5200094F8C9303A46994228BF1946204600F0AF
:10A530007AFE92E7D8F80010DCF8002011B1096823
:10A54000914210D0596874E7002ECCD00122D4F883
:10A5500084508DF80F205DB10022204611460DF188
:10A560000F03A847BFE7002301261D46019367E7B5
:10A57000617994F8C9302046994228BF194600F005
:10A5800052FEB0E71800002020000020D81600205E
:10A59000E0160020DC160020F8B50E460546FDF753
:10A5A00087FB314607462846FFF784FE044620B164
:10A5B0003846FDF701FD2046F8BD03460246314608
:10A5C0002846FFF707FF04463846FDF7F5FC20460E
:10A5D000F8BD00BFF8B506460C4659B30B6843B149
:10A5E0001B68013326D0CB681BB18B68003B18BFBA
:10A5F000012318466122412100F00EF9204602F0A5
:10A600004DF800234FF6FF724FF01C0C86F8CC304B
:10A61000C6E91C43E768D8B287420DD81546002327
:10A620000B4A294613600B4A30461360FFF7B4FF0C
:10A630002846F8BD0023DCE7A1680CFB0011CD899A
:10A64000954202D2002DEAD02A460133E3E700BF4B
:10A65000DC160020E0160020008970470A7838B523
:10A6600005461046FFF7B0FD60B14C782046FFF775
:10A67000ABFD38B12243530704D42846BDE8384027
:10A6800000F000BD012038BD00B10C30FFF7E6BF7F
:10A6900010B504460878FFF797FD58B14A78104680
:10A6A000FFF792FD30B1042A04D02046BDE81040E7
:10A6B00000F01EBD012010BD00B10C30FFF7E8BF57
:10A6C00030B4DDE9024500B10C30CDE9024530BCC3
:10A6D00000F006BB084601F087BC00B10C3000F06A
:10A6E0007BBC37B504460D460192FFF755FF38B9DC
:10A6F00029462046019A03B0BDE8304000F0E6BB91
:10A7000003B030BD01F0C0BA13B50446002001917A
:10A7100001F0C2FF54B1D4F8903053B9019904F15B
:10A720000C0002B0BDE8104000F09CBDD4F88430AD
:10A73000FFDE022002B010BD38B5044648880D4641
:10A7400001F0AAFF4CB1D4F890304BB9294604F17E
:10A750000C00BDE8384000F015BDD4F88430FFDEB1
:10A76000022038BD01F099BF38B505460C46FDF70B
:10A770009FFAA9696B690C4023436B61FDF71CFCD0
:10A7800000200CB9002138BD4FF40071FBE700B187
:10A790000C3000F0A9BF00B10C3000F0C6BF0000C3
:10A7A0004FF4007307B50A490DF10602ADF8063003
:10A7B000FFF7F1FFBDF80630B3F5007F05D10228A1
:10A7C00008BF002003B05DF804FB0120FAE700BFDA
:10A7D000E41600200846114600F0A4BE00B10C307B
:10A7E00000F06EBF38B51546044600B10C3411B107
:10A7F000204600F0B8FF25B12046BDE8384000F003
:10A80000B5BF38BD024B1960024B1860FEE700BFB0
:10A810001C000020E818002008B550B90548064B78
:10A8200001601A60054B1A68054B1A601868FFF73B
:10A83000E9FF08BD1C000020E4180020D01600200D
:10A84000E8180020034618B15B7B0C3013B10847B1
:10A850005B78FFDE0220704710B5044601F0DEFA97
:10A860002046BDE81040032100F0FABA00B10C30D8
:10A87000FFF7F2BF0149FFF7E5BF00BFF5BD0000DC
:10A880000149FFF7DFBF00BFCDBD000037B54378FA
:10A8900005460C46BBB101F055FB616802460190CC
:10A8A000284601F0EBFA206890FAA0F0000A00F0C8
:10A8B00067FCA17A2089019A81F0010101F00EFB69
:10A8C000002003B030BD0220FBE71FB500B10C3003
:10A8D000ADF80C309DF81830CDE9011201A98DF8C2
:10A8E0000E30FFF7D3FF05B05DF804FB0020704782
:10A8F00000207047014B1878704700BFEC1800200B
:10A90000024BD868C0F30360704700BF000002A884
:10A9100070470000431C07D06FF0FF02034B10404C
:10A920005A62A3F580535862704700BF00E000A848
:10A93000C2690E4B02F06002402A12D0602A03D096
:10A94000202A11D1012206E071B10A68012A0BD92F
:10A950004A6942F00102C3F880208022044B1A6148
:10A96000704740F20112F6E70022F4E7003F00B022
:10A97000000002A808B5094AFFF7C2FF0B2806D05D
:10A980000C2809D0092814BF0020022008BD106C33
:10A9900010F48030F0D1F9E70220F7E7000002A8B8
:10A9A0004FF02A430121D3F81821596352074FF47D
:10A9B000005148BF042203F50053196344BFA3F5B7
:10A9C0008053C3F81821704737B50C46194D41B96B
:10A9D0000A46072104F0CAFC174BEC655C6003B023
:10A9E00030BD0722114604F0C1FC0722134B0121A0
:10A9F000DA60237901A885F85C306379019304F06B
:10AA00001BFD019BC2B2D34000F00F0040EA0310CF
:10AA100085F85D00A3790A4A85F85E30E37985F808
:10AA20005F3023682B6623790133136204F0BEFC88
:10AA3000D5E700BF003F00B05C3F00B0006000A859
:10AA4000004000A800F01803182B074B03D1002288
:10AA5000C3F884207047010701D50122F8E7C20638
:10AA6000F5D540F20112F3E7003F00B010B54B7886
:10AA70000C46002B3ED13A4AC2F88C304FF060525F
:10AA8000384B1A62384B1B7813B10622374B9A6742
:10AA90004FF08052364BDA64A3F500531B6C5B0217
:10AAA00008D4C36913F0800F4FF4001314BF314A68
:10AAB0002C4A13624FF480722F4BC3F81821C3F84D
:10AAC0001421A378002B42D14FF02A4340F6FF72A5
:10AAD0001A63E378002B3DD14FF02A4340F6FF7212
:10AAE0001A676022254BDA6403F5E8334022002020
:10AAF0001A6410BD013BDBB2032BE2D84FF060516A
:10AB00001F4A52F82330174A43F400131162A2F58A
:10AB1000805213620423A2F58832C2F88C30936FFE
:10AB200023F0060343F0040393674FF08052154B64
:10AB3000DA6403F0EBFC0028C3D04FF480730E4AB4
:10AB4000C2F81431A2F58052C2F81831B9E7FFF704
:10AB500027FFBEE76022054BDA6403F5D833C5E76B
:10AB6000004000A8006001A8F4180020006000A8C0
:10AB7000002002A8005001A8002000AA005000A850
:10AB80008C030100001002A8044AC002136A00F4FA
:10AB9000FF2023F4FF2318431062704700C000A871
:10ABA000424B2DE9F3411E6805460C46174606B197
:10ABB0000C3640F2022305F001022340134341D03A
:10ABC000A30709D53A4BD3F8003F03F0C003402B4D
:10ABD00002BF0221374B99604FF0000842B30023B7
:10ABE000002200210120CDE9008803F09BFA4FF0FC
:10ABF000FF3002F0ADFC414670810120FFF710FBF1
:10AC00002D4B1B6C580208D4F36913F0800F4FF4DE
:10AC1000001314BF294A2A4A13622A490868FFF719
:10AC200079FE4FF0FF330B60337843F00403337049
:10AC3000A10507D501213046FFF796FD24F40074E5
:10AC400005430C43D6E93A231540234055EA030255
:10AC50000AD01D4AA6F10C0011682A4688472A0727
:10AC600042BF0022194B1A60FB070FD51849194A39
:10AC700008680021136811600121174A117003B19F
:10AC80009847164B002102205B68984717F00E0F7B
:10AC900008D04FF4B0723B21002002B0BDE8F04173
:10ACA000FFF7BABD02B0BDE8F08100BFD0160020AA
:10ACB000003000B0001002A8000002A8005001A857
:10ACC000006001A82C00002028000020F8180020B7
:10ACD000101900200C190020081900202000002065
:10ACE000F7B5D0E93AC71946DDE9086304468CEAAE
:10ACF000060587EA03001540084085EA0C05784000
:10AD0000C4E93A5000250B4022F0010043F40073DF
:10AD100006EA000243F00203CDE9005503F002FA0F
:10AD20002378DA0718D5D4F8EC309B0514D54FF406
:10AD300080312046FFF718FD237865F30003237068
:10AD4000D4E93A2302400B4052EA030104D00449FB
:10AD5000A4F10C0009688847002003B0F0BD00BFD3
:10AD600028000020034A0368002B08BF1346024A4C
:10AD70001360704711A9000028000020014B00203B
:10AD800059677047003F00B003282DE9F3413ED8D2
:10AD9000204B1E5C204B1F5C204B13F80080FCF7FF
:10ADA00087FF054603F0AAFB044640B100230022BA
:10ADB000CDE9003301200023002103F0B3F9394627
:10ADC000304603F0A5FD42463946304603F010FEFA
:10ADD000BCB1134B1B6803B10C33124A126C520204
:10ADE00008D4DB6913F0800F4FF4001314BF0E4A30
:10ADF0000E4A13620E490868FFF78CFD4FF0FF33CF
:10AE00000B60284602B0BDE8F041FDF7D5B802B0AE
:10AE1000BDE8F0819C030100A0030100A403010030
:10AE2000D0160020000002A8005001A8006001A870
:10AE30002C00002008B5FFF763FD0138C0B20B28D5
:10AE400002D8054B185C08BD044B5B6913F0060F74
:10AE50000CBF01200420F6E7A803010000C001A8F0
:10AE600031F00F0210B50BD1FFF7E4FF012809D133
:10AE7000054C236F23F00F0001431046216710BDDE
:10AE80000120FCE70220FAE7003F00B008B50D4BB7
:10AE90001A6C12F0A00F13D15B6C5B0701D5012077
:10AEA00008BD094BD3F8003F23F07F4323F0FF0395
:10AEB000002BF4D0FFF724FD092801D00C28EED197
:10AEC0000020EDE7000002A8003000B0114603F0BA
:10AED00073BB0000094B08465A6A91020BD4D3F8A1
:10AEE0000021D20708D4D3F8803013F4706F14BF58
:10AEF0000120002070470120704700BF004001A8DA
:10AF000070B515460C4601F00B0323EA02012C4AEA
:10AF10002B40D164A2F58052D3646307064610D556
:10AF20000121FFF7D7FF60B103F0DAFC4FF40073A3
:10AF300015F0040F14BF234A234A53620422234B03
:10AF40001A64E00606D515F0100F14BF00221B226C
:10AF50001F4B5A65210618D52A061FD54FF400123B
:10AF6000184B1A62012203F58053C3F80021FCF745
:10AF70009FFE0E210546032002F08AFA40F20122CC
:10AF8000134B2846DA62FDF717F814F0600F03D070
:10AF90003046B16FFFF7CCFC002070BD0D4B1B6C31
:10AFA0005B02F2D44FF4001196F8B230064A1162F7
:10AFB000002BEAD00122034BC3F80021E5E700BFD4
:10AFC000006000A8005001A8006001A8002002A8AD
:10AFD000004000A8000002A830B4C56985EA020359
:10AFE0000B406B40C36130BCFFF78ABF014B186A4E
:10AFF00002F060BA004001A8836F4BB11A68022AC0
:10B0000006D993F8250030B11B6AB3FBF0F0704706
:10B010000C38FFF717B97047014B186A02F072BA83
:10B02000004001A8826F72B11368022B0BD9536ADA
:10B0300013F47F4FC3F3072008D0126ADBB25343E7
:10B04000B3FBF0F070470C38FFF700B97047000011
:10B0500043785A1F012A01D9082B05D14B7B2BB10C
:10B06000012B05D0022B05D0FFF7DCBF024870474B
:10B07000024870470248704720A1070048E80100D5
:10B0800040420F0070B50E46FCF712FE0546FFF772
:10B0900071FC044620B12846FCF78EFF204670BDA7
:10B0A00003F01EFC104B3278D3F8003F022A23F045
:10B0B000F00315D0042A0CBF0222002243EA021337
:10B0C0007278022A0ED0042A0CBF0222002243EA20
:10B0D0008213054AC2F8003F0422044B1A64DAE7DF
:10B0E0000122EBE70122F2E7003000B0002002A8C5
:10B0F00038B50D46FCF7DCFD04461E4AFFF700FCA0
:10B10000062826D804282BD8032829D003F0E8FBEA
:10B11000194B2A78D3F8003F022A23F00F0324D0DA
:10B12000042A0CBF0222002213436A78022A1ED08E
:10B13000042A0CBF0222002243EA82030E4A204660
:10B14000C2F8003F04220D4B1A64FCF735FF0020C3
:10B150000AE00728DAD1D2F84431002BCED1D5E766
:10B160002046FCF729FF022038BD0122DCE701223E
:10B17000E2E700BF000002A8003000B0002002A8F3
:10B1800002F03EBAF8B50E780446022E0D4690F84D
:10B19000C0700AD1002001F0C5FA00283CD101207E
:10B1A00001F0C0FA002818BF0126304601F0BAFAB3
:10B1B000A0B384F8C060AB8804F1C006A4F8C43022
:10B1C0006B883046A4F8C230AB88C4F84431FF2302
:10B1D000A37101F069FA054608BB304601F098FA00
:10B1E0000546E0B9636F5BB194F8C010B94207D06F
:10B1F000B3F91220A4F10C00FEF7FCFE84F8C9009C
:10B20000204601F0D9FA0121A4F8C40004F1880015
:10B2100002F054FD2846F8BD0026C6E701250323A9
:10B2200084F8C030F6E738B5054690F8C0000C4603
:10B23000032813D0FF2913D001F0AAFAA04204D8A2
:10B2400095F8C00001F0A4FA04462046AC7101F064
:10B25000BFFBA0F1FF035842584138BD0220FCE774
:10B260000120FAE738B590F8C0300446032B39D0F6
:10B27000456F41719DB3D0F88430BBB990F8C930A7
:10B280008B4219D300222046FFF7CDFF054658B95F
:10B29000154B1B78012B07D8204601F08DFA0121B0
:10B2A00004F1880002F00AFD284638BDB0F93221C9
:10B2B000B5F912309A42E5DD0022204694F8C91013
:10B2C000FFF7B1FF05460028EED160672046FFF783
:10B2D000C3F901462046BDE83840FFF75DB9FF23BA
:10B2E0008371E1E70225DFE73A000020000000005B
:10B2F00070B5436A8AB0012B03D1002528460AB0F5
:10B3000070BD04465E4901F09BFE666F2589A0670B
:10B3100026B1336813B15B68002B6DD1FCF7C8FC14
:10B32000FCF74AFE01231A46A06F8DF80E30B38950
:10B33000EB1A9BB2D6E90115ADF80C3005FB0311F1
:10B34000504B02911B68834212D010B10368002B4E
:10B3500059D19FED497B002384ED227B0146C4F83F
:10B3600090302046FFF7E4FAA06F02999DF80E2076
:10B37000099004AB204602F0D3F9002838D1424AA4
:10B380004249FFF7BDFA431EDBB20B2B2BD8D35C2F
:10B39000012BF6D13E4A3F49136CD801FCD40B6C0B
:10B3A000DB07F9D404A901A802F088FB0546F8B927
:10B3B000237860F30003237000F052FE636F5B6933
:10B3C0001A68431EDBB2FD2B009225D9D61C23D967
:10B3D000314B01321B6827D0DA1C8FD802466946F0
:10B3E000204600931BE04B6913F0060FD2D0C8E74C
:10B3F000022528460AB070BD1A68032A8ED99B6AB6
:10B400005A0E134691E70369002BA2D0D3E900122C
:10B410009B68C4E92212A1E702466946204600F073
:10B42000A5FD28460AB070BDD91C05D8024669465C
:10B430002046009300F09AFDD4F8EC309B0504D42C
:10B44000237843F00103237058E74FF480312046FE
:10B45000FFF78AF9D4F8E820D4F8EC3002400B402A
:10B4600052EA03013FF44AAF0C49A4F10C00096809
:10B47000884743E7AFF300800000000000000000B1
:10B48000FC4F00B000190020A803010000C001A873
:10B49000000002A800C002A84800002028000020E8
:10B4A0004FF4807103F076BF38B590F8CC40054674
:10B4B000ACB1FCF7FDFB1F22094B013C5A62144062
:10B4C000A3F580535C62D5F8D020A3F580539A662B
:10B4D000D5F8D420DA66BDE83840FCF76DBD38BD3C
:10B4E000006001A88A780346012A10B415D8C878EC
:10B4F000012812D80A78012A0FD84C78042C0CD8CD
:10B500000CB1012809D1012A07D008685DF8044B65
:10B51000C3F8D8001846FFF7A9BA01205DF8044B1C
:10B520007047000037B50DF106020D4600F0F0FF40
:10B53000044688B185B12B7813F0F70F0CD0FCF7D7
:10B54000B7FB074BBDF806201C60064B1A806A88C3
:10B55000054B1A80FCF730FD204603B030BD00BF1C
:10B56000F8180020FC180020F61800202DE9F743F9
:10B5700006461546084619B9012003B0BDE8F08318
:10B58000002AF9D0032905D80022114600F0C0FF97
:10B590000028F1D082780388077990F80580C48864
:10B5A000B0F9000002F007010028C0F28380A1F189
:10B5B000070CDCF1000040EB0C000529287294BF59
:10B5C0000020C2F300106872C2F38010287302F0EA
:10B5D0008800802838D0882838D0082838D1012021
:10B5E000FE2F28BFFE27C2F340126873AA73EF73C1
:10B5F000F269D20658D40639012955D82E4A063B9D
:10B60000526D9BB2062269462C4800F0EFFD9DF872
:10B610000070E304A7F132077FB21BD49DF801004C
:10B620004400E0B2D6F880300BB139469847E87252
:10B630006A7B3046DDF80210AF7202F04DFC062343
:10B640002860AB71002098E70220C9E70320C7E714
:10B650000020C5E7B36FC4F30B04E4008BB11A6894
:10B66000022A0ED993F824300BB1B4FBF3F4A045B1
:10B6700016D8BCB1C8EB0820B0FBF4F0C043C0B290
:10B68000D0E73046FFF7B8FC294681463046FFF741
:10B69000DFFC0028EBD009FB04F4B4FBF0F4E6E790
:10B6A0000020BFE72046BDE70020802328606B8193
:10B6B000A87162E7022060E7004000A84C0000AAE1
:10B6C000F8B5064614469779FFF750FF054648B986
:10B6D000A3793BB121463046A771FFF7B9FC21465B
:10B6E00002F0C8FB2846F8BD084610B510F0030468
:10B6F000114618D1B3FA83F3192B12D0C3F11903F1
:10B70000DBB2062B28BF06239C1DE2B20124944025
:10B71000A4B2A1421A4628BF214600F003FD2046EC
:10B7200010BD2346F0E70124F9E711F003030846B2
:10B7300010B516D114883F2C13D9B4FA84F4192CFF
:10B7400005D0C4F11903DBB2062B28BF0623194626
:10B750000633DCB20123A340138000F001FD00207A
:10B7600010BD0120FCE7FFF71BB900004FF02A4392
:10B7700070B54FF480640020084DD3F81861084B71
:10B78000C5F81841186003F00FF94FF400532B6708
:10B79000730544BF034BC3F8184170BD002000AAD5
:10B7A000F8180020001000AA082310B1024A136400
:10B7B0007047024AFBE700BF001002A8002002A861
:10B7C00010B514460846012101F0E6FD204601218E
:10B7D00001F0E2FD002010BDF8B504460D4611B998
:10B7E00003785A063DD44FF6FF73A189A66F99429C
:10B7F00004D02C4B1B680BB1204698472A4F3B685E
:10B80000B34247D0294B1B683BB11EB13268002AB6
:10B8100042D0B668314620469847A36F002B34D0FB
:10B820001A68022A31D95A6A12F47F4FC2F30720EC
:10B8300005D01B6AD2B203FB02F2B2FBF0F002F0B9
:10B84000A5F90726204600F0B7FFC5B103F0AEFD0D
:10B8500006200122A36F16493B60164B88671A70B9
:10B86000F8BD4FF6FF71104F866F3A6865F3861387
:10B87000B24281810370C5D100F09EFF012631469E
:10B8800004F1880002F01AFAE0E7A4F10C00FEF7D8
:10B89000DDFCD4E70126D5E7164620463146984719
:10B8A000BBE700BF0419002000190020F018002099
:10B8B000006000A8F418002008B5582200210648AE
:10B8C00004F093FB1022FF21044804F08EFBBDE836
:10B8D000084003F06BBD00BF043F00B0483F00B01C
:10B8E0002DE9F3418846044600284BD0032380F815
:10B8F000CC30264B4FF0FF371B7800F10C068373DA
:10B900006923C0F8A8306423C0F85071C0E92B3314
:10B91000C0E92D33A0F8BC304774478287613046B8
:10B9200002F0FEFD3046FFF7C7FF94F90E00FFF767
:10B930002BF96022164B04F1E401DA643046FFF77C
:10B94000D1FD39460546A26A3046FFF745FB0E2376
:10B950000022CDE9003340F202231046194602F0DE
:10B96000E1FB00F0EFFE4DB92046FEF719FF05465A
:10B97000B8F1000F02D008B92046C047284602B0EF
:10B98000BDE8F08180F8C000FFDE00BF320000207B
:10B99000004000A8034670B50C68B0F8C42001341C
:10B9A00008BFD3F89C408D6808BF0C604C686932B2
:10B9B000013408BFD3F8A84092B208BF4C606C1C99
:10B9C00000F1880033D1D3F8A450CC688D60661C98
:10B9D00031D1D3F8A0400E69CC60013604BFD3F852
:10B9E00094600E614E69013604BFD3F898604E61D1
:10B9F0008E69013604BFD3F8AC608E618E69F6B1F2
:10BA0000B24238BF32460E688A61C3E927644C6887
:10BA1000C3F8A450C3E92A420A69C3F894204A69CA
:10BA20000721C3F8982002F049F9002070BD954223
:10BA300038BF1546C9E7944238BF1446CBE76422A5
:10BA4000E1E7000038B5FCF733F94FF6FF710A4A19
:10BA500013888B4203D1FCF7AFFA032038BD074CA3
:10BA6000074D1B046566A4F5805463661180FCF7DE
:10BA7000A3FA0020F2E700BF30000020006001A818
:10BA80000000FFFF2DE9F34105460E461446FFF77F
:10BA9000FDF9002800F0C080604B4FF4006128469B
:10BAA000D3F8008FD3F8DC7E03F074FC38B14FF488
:10BAB000007201215A4B08461A64FEF7B1FB314669
:10BAC0002846FEF769FD554B0646C3F8008FC3F8BC
:10BAD000DC7E002840F083802B789F0601D4002C68
